:020000040000FA
:1000000000400020E18C01001D8D01001F8D0100CA
:1000100000000000000000000000000000000000E0
:10002000000000000000000000000000218D010021
:100030000000000000000000238D0100258D01005C
:10004000278D010039A0000029940100278D0100AF
:10005000278D010000000000E18D0100278D0100C7
:1000600009080100899901009D920100278D010076
:10007000278D0100278D0100278D0100278D0100AC
:10008000278D0100278D0100278D0100278D01009C
:10009000278D010081890100418A01007D0901004D
:1000A0008D090100278D0100000000000000000004
:1000B0000000000000000000000000000000000040
:1000C00010B5064C2378002B07D1054B002B02D02E
:1000D000044800E000BF0123237010BD2001002070
:1000E000000000007C870300044B10B5002B03D0F8
:1000F0000349044800E000BF10BDC04600000000F6
:10010000240100207C870300402292029A1A924622
:100110007047C046174B002B00D1134B9D46FFF78D
:10012000F3FF00218B460F461348144A121A28F099
:10013000E7FC0E4B002B00D098470D4B002B00D056
:1001400098470020002104000D000D48002802D02F
:100150000C4800E000BF20F01DF92000290028F025
:1001600069FA20F035F8C0460000080000000000E1
:10017000000000000040002018010020E02F0020B7
:10018000000000000000000010B526F038FF014814
:1001900010BDC04654E2020010B5C30708D483075F
:1001A0000ED10368094A934202D0094A934207D10B
:1001B00003F0BEFB002801DD21F0CBFA054810BD9D
:1001C00003F01CFC1AF050FEF4E7C046F8CA020027
:1001D000ECD0020054E2020001220B4B10B51A6071
:1001E0000A4A51680029FCD000215160A122013146
:1001F000D2009A5859600323D017184080188010F5
:1002000024F04FFF10BDC04600C00040FCC00040BD
:1002100010B5002804D1044815F0CEFD034810BDE8
:10022000086803F085FBF7E7E703000054E20200EB
:10023000F0B5334B8BB007AC01940093032310F05F
:1002400011FA0221089805AA03F038FC06AA022137
:10025000099803F033FC079803F0D0FB059B061CBC
:10026000186803F0CBFB059B051C586803F0C6FB20
:10027000069B071C186803F0C1FB069B041C58680A
:1002800003F0BCFB291C0390301C1AF029FC291C2C
:10029000061C381C1AF024FC011C301C1AF032F920
:1002A000211C051C03981AF01BFC011C281C1AF0C9
:1002B000F1FA211C19F088FF032206990B681A40F5
:1002C000022A03D10F4A1340062B10D103224B6898
:1002D0001A40022A03D10B4A1340062B07D11CF007
:1002E00081FF1AF0C1FD24F0DCFE0BB0F0BD03234A
:1002F000020002209A43044B1043C018F5E7C046A1
:100300000C8F0200070080FF0000808070B50400A1
:1003100003F02AFA00230C49DA0052181568A542A6
:1003200005D15168094826F028FB012070BD013332
:10033000612BF1D1064B9C4203D0984201D00020A2
:10034000F4E70449EEE7C046588F02007CE402005F
:1003500058A102006EFA0200014BD8607047C046F7
:10036000582B0020034B82B0D86801ABC01A02B0F2
:100370007047C046582B0020014B18617047C0469B
:10038000582B00204E2110B5024822F0DDFE10F05F
:1003900019F9C04624AC020007B5054A01ABD16883
:1003A0001269CB1A9A4201D8FFF7ECFF07BDC0468D
:1003B000582B002010B50400FFF7D4FF074B0200B4
:1003C0001B690749074826F09EFB10F045FF012CEA
:1003D00001D110F063FF044810BDC046582B002027
:1003E000DA2003007CE4020054E2020010B503F0BE
:1003F0009FFA0FF03BFF014810BDC04654E20200D7
:1004000010B510F02DFC014810BDC04654E20200AA
:1004100010B510F01BFC014810BDC04654E20200AC
:1004200010B586B0040005AB04AA03A902A808F021
:1004300075FC059B029A0193049B064900930648AC
:10044000039B26F060FB012C01D108F0A1FC0348BE
:1004500006B010BDEF2003007CE4020054E202006D
:1004600010B5084C002805D1A834236801305B0082
:10047000184310BD086803F05BFAA83420600248F6
:10048000F7E7C046582B002054E20200044B886076
:100490000B60044B08004B600023CB607047C046E4
:1004A000D0E20200111002000300054A08000A60B1
:1004B0001A7A0A715B688B600023CB607047C04674
:1004C000F89302000B6870B506000D00181D49680E
:1004D000140001F0C7FA031E02D0406800280FD1B3
:1004E000022E08D10948022C06D16968084822F07A
:1004F0002BFE10F067F8A868012C00D1586070BD81
:10050000022CFCD100225A60F9E7C04654E20200F6
:1005100044AA020010B504000C2021F0A8FB034BF4
:10052000446003600223037210BDC046349402008D
:1005300010B5043020F080FE004810BD54E20200E7
:10054000002803D0012808D00020704707224B68FC
:1005500004489343F9D10448F7E74B68DB085B0094
:100560001843F2E7E4D00200DCD0020070B50400CA
:100570000D000B7A164A9B0086B0995826F0FDF9BB
:100580002000144926F0F9F9134B02AA02932B7AA2
:10059000012613716B68019304930023059302A84D
:1005A00020F040FD051E05D120000C4926F0E5F99C
:1005B00006B070BD002E03D12000094926F0DDF9F8
:1005C00001222900200003F0E7F80026E7E7C046F3
:1005D0007094020037210300F89302003D210300CC
:1005E0003A210300F0B513681400012287B00F68A8
:1005F0000D000092D9080223060010F003F8022E25
:1006000014D16868032302001A40184218D1016807
:100610002A4BC968994213D12B68984206D005929B
:10062000686805A920F0E1FC061E01D100253FE025
:1006300001223168381D01F015FA73684360EFE755
:10064000002106F09BFB0390039806F0F9FB0028BD
:10065000ECD0002106F092FB050006F0F1FB06004D
:10066000280006F0EDFB0290280006F0E9FB002EC2
:1006700004D0029B002B01D0002802D0104806F0C5
:10068000A1FF01223100381D01F0ECF9029B43600B
:10069000DAE7A368EE009E193168002907D0042923
:1006A00005D00122381D01F0DDF973684360013582
:1006B0006368AB42EDD8034807B0F0BD31090000D4
:1006C0004021030054E2020030B5002585B001A9A5
:1006D0000400019520F089FCA84203D109490A4889
:1006E00021F099FE636802A9083B636003680293E6
:1006F00043680393042328C0022013F0CDFE05B005
:1007000030BDC0466621030044AA0200F7B50C00C4
:1007100015001B280CD000221F2807D1081D290016
:1007200001F0A0F92B4A002800D12B4A1000FEBD91
:1007300003222B001340114225D1284922688A4206
:1007400021D1002BF1D1296891421ED10093019350
:100750006946200020F049FC01A90700280020F08C
:1007600044FC0600002F31D00028DED03168386804
:1007700003F08CF80028D8D07168786803F086F808
:100780000028E5D1D1E7002BCFD1154B2A689A423A
:10079000CBD16A686368534007229343C5D1019364
:1007A000200001A920F021FC061E01D1094ABDE765
:1007B00000223168281D01F055F90028B5D04168A4
:1007C000706803F063F80028EAD1AEE7014A002818
:1007D000ABD1ABE7E4D00200DCD00200B894020059
:1007E0007C940200F7B50B681C4A04000D0093428C
:1007F00003D05A681A4926F086F92000194926F0D4
:10080000BCF8002301270193280001A920F0EDFB8B
:10081000061E0CD12000144926F0AFF82B680F4AB1
:10082000934203D02000114926F0A7F8F7BD002F0E
:1008300003D120000E4926F0A0F8012220003168E3
:1008400002F0AAFF0B49200026F097F801222000B1
:10085000716802F0A1FF0027D6E7C0467C94020031
:100860008521030089210300D6770300652B03004F
:100870003A210300C875030010B504000C2021F0D4
:10088000F6F9034B446003600023037210BDC046B9
:100890003494020010B504000C2021F0E8F9034B59
:1008A000446003600123037210BDC046349402000B
:1008B00010B5002204300C0001F0D4F8002805D156
:1008C0002100034822F040FC0FF07CFE406810BD80
:1008D00044AA020010B5024B08C020F098FC10BDDD
:1008E0007C940200F8B50C0007000021606806F057
:1008F00045FA0E4E0500022F00D9A668606803F085
:1009000031F9002809D120F0B5FB0400280006F0D9
:1009100097FA011E03D12000F8BD4010F3E7012231
:10092000201D01F09FF84660F0E7C04654E2020047
:10093000F0B589B00190002017001E000D0020F0D6
:1009400099FB019B019A03600D4B04009A4203D16D
:1009500004230279134303712B003B430DD033680A
:10096000AA003900B21805A80394049320F05DFC96
:10097000681C05AA03A9FFF735FE200009B0F0BDE9
:10098000B894020010B50C00002A03D120F0A5FB9A
:100990000A480EE0042A0DD10022043001F062F86A
:1009A000002805D12100064822F0CEFB0FF00AFEF8
:1009B000406810BD20F087FBEAE7C04654E2020021
:1009C00044AA020070B504000D00104925F0D5FFBF
:1009D00069680122200002F0DFFE0D4E2000310088
:1009E00025F0CBFFA9680122200002F0D5FE3100DE
:1009F000200025F0C2FFE9680122200002F0CCFEB1
:100A00002000044925F0B9FF70BDC046AC210300A9
:100A10003A210300652B030070B5060010200D007D
:100A2000140021F024F9034B466085600360C46024
:100A300070BDC046F4940200F7B50020234A244E4E
:100A400012783368111D49005F18C95A5C8849053E
:100A5000490D4C431F49A412096801907D78072075
:100A60002F008743F82F21D00127ED08AF40A020A9
:100A70003D00A127C005FF000132C551D2B2151DAE
:100A80006D005F19ED5A6D05680D5D884543AD1227
:100A9000281B8446A542E1D00C480270019A002A26
:100AA00002D00C4A336011606046FEBDA0200A4AA5
:100AB0005C68C0058450002902D10A000C00DEE702
:100AC00001220B0001920021F7E7C0462E2F0020E3
:100AD0003C010020400100200C05000010B572B65A
:100AE00000220D4B1C681A6062B6944211D10B4B68
:100AF0000B4C1968A14200D10A4C20000A7808303A
:100B000022704B88520063804B680831636027F085
:100B1000E4FF200010BDC046400100203C01002041
:100B20004401002074010020044B054A1A60002390
:100B3000044A1360044A13707047C0463C01002009
:100B400030950200400100202E2F002010B57822A1
:100B5000022002490FF0C4FE10BDC046390A000051
:100B6000421E084BFF3A10B504009A4207D8FFF71F
:100B7000B5FF054B241144801860002010BD0120F2
:100B80004042FBE740410F0040010020044B1B683E
:100B9000002B01D1034B1B68588800017047C046E9
:100BA000400100203C0100208023F7B5DB00040059
:100BB0000D000800994200D333481B1A0193FFF738
:100BC0008DFF0122A24046680092164207D1230001
:100BD000A0210327C133FF339B00C9055F500027C5
:100BE00003789F4206DB002D01D0132B0BD9274B36
:100BF0001860F7BD391D490042185278D208944256
:100C000038D00137EDE7009A019932434260E4029F
:100C10001A1D52000C430133145203700122851C2B
:100C200003789A42E3DA2F00131D5B00195A2E89CC
:100C30004905490D531E1C1D6400245A6405640DAA
:100C40008C4204D9FC88023F7C81013BF3D20533FE
:100C50005B001E5201320235E2E7009A013BDBB233
:100C6000964303704660BB42D8DD04335B001B5AD9
:100C70000B52D3E7002DF0D0019B5A050B5A520DB1
:100C8000DB0ADB021343F3E7FF030000400100200F
:100C900070B500210400FFF787FF00210C4B186896
:100CA0000578A94211DA0B1D5B00C3185A78161C8F
:100CB000D20894420AD10822524232435A70012388
:100CC000A021A340034AC9058B5070BD0131E8E75C
:100CD0003C0100200C0500000022104B10491A6056
:100CE00003001233FF3341185A701A7004338B42D9
:100CF000FAD101000300002209310833FF311A70D4
:100D00009A705A70DA7004338B42F8D1C3237F2271
:100D10009B00C254034B044A1A607047A401002090
:100D20001103000008000020B321030070B500216A
:100D300040250D4C8B00C318FF335A7C7F2A12D0FC
:100D4000A25C0131C9B22A42F4D05A7D7F2AF1D087
:100D5000A25C7F2AEED917269E57DA7D002EE9DDA8
:100D60000132DA74E6E770BD45220300F7B50024CE
:100D700006002500AB00F318FF335A7C7F2A2ED0E3
:100D80009B7C6F1CE418E4B2FFB2EF2C15D9002451
:100D90000235230022003900300001940094EDB2A6
:100DA00020F0E0F923007E22290030000194009415
:100DB00020F0D8F90135EDB2DCE77D2AFAD8084BEE
:100DC0009B5C01221342F5D000243900230030003F
:100DD000019400947D3220F0C5F93D00EAE7F7BDAB
:100DE000962203000300F7B500214C4A1333FF336A
:100DF0008218197004339A42FBD1FC239C460025CB
:100E0000844463462A001B690093009B9D4207D3DC
:100E10007F234432920013540120FEBD0D00F4E7FD
:100E20006346DF687C5D602C01D9203CE4B2691C1C
:100E3000009EC9B200238E4204D07B5C602B01D996
:100E4000203BDBB20026232C21D1303B092B02D9D9
:100E5000334B344A0CE00235E9B2009C8C420AD88C
:100E6000FF2BF5D8437053B2002BD7DA2C4B2E4A08
:100E700000201A60D1E77C5C2500303D092DEFD8B9
:100E80000A256B430131303BE318C9B2E5E7F7B2FD
:100E90000197264FF75DA74211D1254FF75D2A2F05
:100EA0000DD0BB420BD193000199C318FF33597485
:100EB0004178013202351975D2B2E9B2D3E7013671
:100EC000512EE4D100231A4D5E5DDFB22A2E0CD1E3
:100ED000164E9E5DA64208D19300C318FF335F747F
:100EE000447801321C75D2B2BDE70133512BEBD1EE
:100EF000104D493B2E7AA64208D0013D002B02D16D
:100F0000074B0D4AB4E7013BDBB2F3E7002BF7D008
:100F100014004334A4000419A370A4E712030000D2
:100F200008000020C8210300B62103008423030029
:100F3000D523030026240300D621030010B5113069
:100F4000084A0949FF3003787F2B00D110BD0224E5
:100F50000457002C03DCCB5C43700430F3E7D35C14
:100F6000FAE7C04634230300E4220300F0B506008C
:100F7000002785B0BD007519FF356C7C7F2C01D131
:100F800005B0F0BD0222204B791C9C461B5DC9B206
:100F900013421FD001203A0003421DD11B4B2218DF
:100FA0001B1903935B78287DD2B20190E87C023450
:100FB0000090300020F0D6F8287D039B0190E87C5B
:100FC000B91CC9B200909B783000E2B2033720F020
:100FD000C9F8F9B20F00CDE70132D2B213004433A1
:100FE0009B009B5D002BF7D07F2B06D06246D25C26
:100FF0001207EFD4243B012BECD9044B621C1B19C4
:1010000003935B78CFE7C04645220300E422030048
:10101000F0B50600002585B0AC003419FF34637CC0
:10102000002B03D10135EFB23D00F5E77F2B00D156
:10103000DCE010216E4A6F1CD25CFFB20A420BD179
:101040004E2B20D118220D21E37C6174217D009369
:101050000023019139003FE0E37C217D9206D20F0D
:1010600001910093390000233000143220F07AF807
:10107000637C352B00D097E0637B5E4AD35C5B07D3
:10108000D2D5102362E04F2B03D11B22DBE71C22B9
:10109000D9E7502BFBD052B2002A21DAE27C002A99
:1010A0001ED03A0044329200925D002A18D1A91C49
:1010B000C9B28A00B218FF32507C03927F280FD049
:1010C0004B4A105C7F280BD9039AD27C002A07D0A8
:1010D00000231F2201930093300020F043F8A3E780
:1010E000172B08D0182B33D1637B414AD35C7F2B5D
:1010F0009AD913232AE0637B013DEDB2452B1BD126
:101100001B3B63732A0043329200394B925D9A5C19
:101110007F2A89D90135EDB2AD007519FF356A7C9A
:10112000002A59D09B5C7F2B00D87DE7EB7C002BFD
:1011300000D079E71E3309E0392B01D10D3BE0E700
:101140002B4AD35C7F2B00D86EE7122363746BE7C6
:10115000202B05D1637B3C2B00D065E7163BF5E7E0
:10116000482B14D1637D7F2B02D14B23637403E0A2
:101170001F4AD35C9B06F8D5637C1D4AD25CD2071C
:1011800000D475E7627B202A20D10C3BDEE73C2BA4
:10119000F2D1637D7F2B00D146E7154AD35C9B06D5
:1011A00000D541E73F23D1E72A2B06D1237D2B220F
:1011B0000193E37C009300234CE72C2B06D1237D85
:1011C0002D220193E37C0093002343E7452B99D024
:1011D000392B00D028E795E76A7D7F2A00D123E7E5
:1011E0009B5C7F2B00D81FE71E23AFE705B0F0BD47
:1011F0004522030096220300F0B5002485B001903B
:10120000E3B2019A44339B009B5CE5B27F2B32D062
:101210005C4EF35CDB072CD56A1ED2B2019B4432D4
:1012200092009A182B00584F013BDBB2002B23D0C1
:1012300011787F2903D0795C043A7F29F4D9019988
:101240009A008A18FF32517C7F290ED02027705CCB
:10125000384204D04C48415C0420014205D0917CC6
:10126000480884460131614491740133DBB29D42E8
:10127000E5D10134C4E70023022712E0730708D444
:10128000F3070DD5029AFF32937CD9085B1A937449
:1012900006E0039B9B7B9A080133D318039A937350
:1012A000634601999A008A181400FF34617C029207
:1012B0007F2964D0344A5E1CF0B256568446555C91
:1012C000002E1EDA8100019841264118FF314D7C25
:1012D00003917F2D00D0565D505D010040200142FA
:1012E000CCD1123D012DDBD80233DBB2019944335E
:1012F0009B005B5CD35C0342D2D0A37C013BA37414
:10130000CEE708201F4E715C01420FD06346019961
:101310009B00CB18FF33597C7F29C1D0525C3A42E5
:10132000BED006229A74013A9A73B9E73D421CD0A6
:101330000133DBB21A00019944329200525C002A58
:10134000F6D07F2AACD010498A5C3A42A8D0019AE4
:101350009B00D318FF339A7C520801329A74029A88
:10136000FF32937C5B08013391E71023194297D039
:10137000637BD35C3B4293D0A37C023BBFE705B0C9
:10138000F0BDC046962203004522030070B504005C
:10139000FFF7A2FC2000FFF725FD23000022FC330D
:1013A000DA601A61904226D02500224E113533684A
:1013B000FF35934203D029001F4807F0DFFD2000CE
:1013C000FFF726FE2000FFF7B1FC2000FFF7B6FD77
:1013D0002000FFF711FF2000FFF7C8FDC4222B00FB
:1013E0009200A1181A78502A06D97F2A07D0002027
:1013F000124B134A1A6070BD04338B42F2D133682A
:10140000002B02D00F481FF075F82000FFF7AEFC4C
:101410003368002B03D029000B4807F0AFFD2000F4
:101420001FF074FE054B0949186827F0B3FB4342CF
:101430005841E0E768020020ED2103000800002089
:10144000FC2103002222030032220300B321030007
:10145000F7B503780400002B01D10020FEBD402B1E
:1014600020D101230193002304221E001D00190036
:1014700094462278002A3ED101200029EEDC002D7E
:10148000ECDC002EEADC033B8342E7D9013C237805
:101490005C2BE3D0019A002ADFD00A3B5A1E93410D
:1014A000D8B2DBE73F491FF087FE0028D9D12000E2
:1014B0003D491FF081FE0028D3D120003B491FF099
:1014C0007BFE0028CDD1200039491FF075FE002891
:1014D000C7D1200037491FF06FFE0028C1D120007E
:1014E00035491FF069FE0028BBD1200033491FF0A9
:1014F00063FE0190B7E76078272A0AD1002B46D017
:10150000032B02D127284AD143E0012B47D80122DF
:1015100044E0222A11D11A006746BA4309D1222891
:1015200005D1A278222A02D16246023436E0002B8D
:1015300001D0022B33D1022230E05C2A0AD12728C5
:1015400003D0222801D05C2804D11A00501E824109
:10155000A41824E0002B22D15D2A14D008D8292A0F
:101560000DD05B2A0DD0283A50424241891816E02E
:101570007B2A0AD07D3A50424241B61A0FE0013927
:101580000DE001350BE0013D09E0013607E02728B9
:10159000BDD1A278272AB8D10234243AD31A013413
:1015A00067E7C046848303002F240300352403002B
:1015B00039240300945A030076870300B1760300B0
:1015C000F0B58BB0079343180490059201930093F4
:1015D000009B5C1E049BA34201D9009310E020787D
:1015E00002F0ACFE002801D00094F1E7207802F070
:1015F000B1FE0028F8D123785F2BF5D02E2BF3D045
:10160000834B1D68009C019B9C4202D223782E2BA9
:1016100021D1009BE71A019B9C4245D300240194F1
:1016200003940294AB68A3425AD8029B002B00D0CB
:101630008AE0009B049A934233D1764C3A00210011
:10164000180027F033FA00282BD1079BE419073044
:101650001C60C01B26E00134D5E70136AB68B342FD
:101660001FD9EB683100180002931FF0BFFD00285E
:10167000F3D0F3000393029BF200985809A901F0FC
:10168000EBF8099B0100BB42E7D13A00009827F034
:1016900092FA0028E1D1EB68039A9B185868002859
:1016A00004D100200BB0F0BD0026D7E70323184279
:1016B0000CD10368584A934205D123F04EFF050030
:1016C000631C00939EE7554A934201D002F04CF808
:1016D000856B002DE5D0524B2A689A42F0D0E0E7A6
:1016E000EE68210030001FF081FD00281DD0E300CE
:1016F000985909A901F0B0F8099B06000693BB426E
:1017000013D301003A00009827F055FA00280CD1B5
:10171000039B002B12D03B00019A9A4202D3069AF7
:101720009A4204D2029B0133029301347AE7039A6E
:10173000D15CF25C914205D10133EDE7069B039643
:101740000193EFE70193EDE7029B012B02D0019B90
:10175000BB4258D9039B079ADB191360019BD81B26
:10176000A0E7EC68019920001FF040FD00282DD073
:10177000019B09A9DB00185901F06EF8099B039041
:101780000493BB4222D301003A00009827F013FAD9
:10179000029000281AD133000F220F33DC171440B7
:1017A000E41824112401A41B012C00DC1034049A39
:1017B00033199B18402B1FD8029B9C4214DC0399C1
:1017C000059825F0DAF8099BF6183619019B0133C4
:1017D0000193AB68019A9342C3D81249059825F04A
:1017E000CCF8012040425DE70F49059825F0C5F887
:1017F000029B01330293DFE7039A0C49059825F019
:1018000082F9099EE2E7002340260193E1E7C04602
:10181000582B0020412403002CDE020070D6020069
:101820007C9402005B450300E42E03003D2403008A
:10183000F7B545681600A8681F00019125F07EF9EC
:101840000400A86825F080F925F078F903235843AF
:1018500007340019800020F00AFA084B04000360E6
:101860006B683200436000238560C36001993B00D0
:10187000083013F0F9F92000FEBDC046A49502001F
:1018800070B5050088680C0022F093FC230002006C
:101890000249280025F037F970BDC04649240300ED
:1018A00010B5024821F04AFC0EF08CFE60AC02003C
:1018B00010B50400082020F0DAF9024B4460036000
:1018C00010BDC046E0950200F7B5C5680F000400E2
:1018D00011001E00002D02D11D602800FEBD020077
:1018E00003691832934205D1174B9F4203D0174822
:1018F00006F02EF81F602000154F08307B6801931A
:1019000063687B6003F07EFA019B05007B60012821
:1019100007D002280CD00023E36023691B683360E2
:10192000DBE723691B683360002BD6D1E360D4E783
:10193000A368986825F002F9002305308000E36071
:1019400024186368EBE7C04654E2020067240300F2
:10195000582B002013B501ABFFF7B6FF01280ED0BE
:10196000104C02280DD0019BA34219D0002B17D098
:1019700001210D4801AA21F0DBFB0EF023FE0198A6
:1019800016BD019801F0F0FE07490CF0B3FF0028E6
:1019900001D10198F1E7019806F008FC8442F8D1E2
:1019A0000020EDE754E2020060AC02000B0010B52D
:1019B000022808D14A6805491868FFF7CBFF0028BC
:1019C00003D1FFF76DFF8A68F5E710BD54E202000E
:1019D00010B500220149FFF7BDFF10BD54E202001F
:1019E00013B5114C114A210001ABFFF76DFF01281F
:1019F00003D0022805D0200016BD0D490D4820F067
:101A00000AFD019801F0B0FE0B490CF073FF0028AD
:101A1000F1D1019801F0A8FE08490CF06BFF0028F5
:101A2000E9D101980EF0CEFD54E20200CCA70200ED
:101A30009D24030024AC020054A9020060AC020003
:101A40000300002206495000405A984206D2013253
:101A5000222AF8D15808C318012018437047C046FD
:101A600030F50200F0B5037887B004000E00009254
:101A70009A0702D5009A002A14D1DA07D10F0291F1
:101A8000002A12D0794A3240062A0ED003223100B1
:101A90001140164203D1764A3068904204D0009A31
:101AA000012A02D0002550E002915B075AD5236835
:101AB000A568DF08FF00EF19BD422DD3009B012B65
:101AC000F0D12368D9086368994210D1043161606C
:101AD000A068C90020F0E9F823686268DB08D21A20
:101AE000DB00A0600021D200C01827F009F8072110
:101AF0002368DD086A1C0B40D20013432360A368EF
:101B00005A49ED005D192E600E40062E1DD00122AF
:101B100023789343237018E02868B04218D1009BC3
:101B2000022B12D1290023687A1B083B6E6828001B
:101B30002360083A083126F0D0FF2368DD08A36847
:101B4000ED005D1900236E602B60280007B0F0BD2A
:101B5000029B002B04D1310001F098FE0028DED159
:101B60000835A9E76368002B05D1009B012B99D1AB
:101B700020001FF073FB3D4B33400593062B28D10B
:101B8000F00821F039FB04906168049818F0B0F86F
:101B900000270391039B0193019BDD00A3685D195E
:101BA000286800281CD1009B012B00D07AE7072170
:101BB0002368DA080132D2000B4013432360002F60
:101BC00000D03D0000236B60059B2E60062B9ED14C
:101BD000BBE73100022004F067FF43100493D3E712
:101BE00004281ED1002F00D12F0001986168013018
:101BF00018F07EF8039B01918B42CDD1009B012B05
:101C000000D04FE7002F2CD023683D00083323601D
:101C100000237B60059B3E60062B96D02378009ABC
:101C200077E7B04212D1009B022B00D08DE72368EA
:101C30000198083B23606168013018F059F8A368E7
:101C4000C900CB58002B0AD12B607EE7029B002BEA
:101C5000CBD1310001F01AFE0028C6D0E3E70423FF
:101C6000F2E720001FF0FAFA8EE7C046070080FF77
:101C700028990200F0B5802787B02B4D02907F4253
:101C80002C78002C1CD063B2002B12DA6E787C40CA
:101C9000E4B2002E14D0013CE4B2FF2C02D1013595
:101CA0000135EDE704ABD81D0121067001F000FD00
:101CB000F1E704ABD81D0121047001F0F9FCEFE756
:101CC000052702981FF045FD0124A74227DD0025C6
:101CD000164E2200290030000CF0DCF96B46019012
:101CE0001B79002B15D0631E1A00290030000393C6
:101CF0000CF0D0F9031E0CD12200290030000CF0AA
:101D000095F9FF22019B290013403000621E0CF060
:101D10008DF90135052DDBD10134E4B2D5E7013F62
:101D2000002FCED107B0F0BDBD240300200000205D
:101D300010B5C820FFF79EFF004810BD54E2020016
:101D40000048704716FCFFFF0048704716FCFFFF75
:101D500082B007B5049292B20593052A09D01B2AD6
:101D600002D104A804F004F8002003B008BC02B0BB
:101D7000184704AB5B88032BF6D106A908226846F6
:101D800026F0A2FE0349049A059B086814F0B4FEED
:101D9000EAE7C046AC2A00200022044B5A60044AFD
:101DA00008321A60034A13607047C046A801002039
:101DB00058960200FC2C0020032130B504000300DB
:101DC00001220C40084204D109491D6810008D42CF
:101DD0000CD0190001201140134207D10800002C3B
:101DE00004D11868034BC01A4342584130BDC04665
:101DF000ECD00200F8CA020010B50400FFF7DCFFC7
:101E000003000120002B0AD1032218002240022ADD
:101E100005D103480440063C2000431E984110BDF4
:101E2000070080FF044B88600B60044B08004B6088
:101E30000023CB607047C046D0E20200E9160200E2
:101E400010B501F091FC084B42680848D31859427C
:101E50004B41B8215B428B4305495B18054906F0AD
:101E6000D9F90EF0AFFBC04631FDFFFF14AD020003
:101E7000CF0200005B250300F7B504000D000193BD
:101E800001208B180A0000210093009B934212D876
:101E90002726002900D0053E224F320039002000BD
:101EA00024F031FE009B9D4214D332003900200003
:101EB00024F029FEF7BD1378272B08D0223B5E4281
:101EC0007341DBB20132002BDFD02726E4E7002389
:101ED0000100F7E72A78B24205D13200124920000A
:101EE00024F011FE1AE011495C2A14D01F2A09D9E6
:101EF0007F2A15D0019B002B02D053B2002B0FDBA1
:101F00003900ECE70A490A2A05D00A490D2A02D00D
:101F1000092A05D10849200024F02FFD0135C1E729
:101F20000649DCE787250300862503008A25030090
:101F30008D250300902503009325030096250300BB
:101F4000194B70B506000C0098420FD14968A06883
:101F500006F042FE051E09D0200022F08EFE00236E
:101F60000620ED0023600543280070BD10201FF0FF
:101F70007EFE6168050081600660A06806F00EFEC6
:101F800063686860591C2368994208D1A368EB60B4
:101F90000023EA68A9685354A3602360E4E7A068BB
:101FA0001FF083FEE860F3E72899020070B5040093
:101FB0000D00002A05D006F045FEC3000620184398
:101FC00070BD06F009FE0028F7D12A002100024862
:101FD0001FF066FAF4E7C0462899020010B50A001F
:101FE000010002481FF05CFA10BDC0467C9602005A
:101FF000094B10B50340062B01D1C00810BD830763
:1020000008D1064B02689A4204D18168C06806F084
:1020100019FEF3E7FFF714FF070080FF289902007D
:10202000064B10B50340062B03D1C00821F0F3F88E
:1020300010BD8368C0680B60FAE7C046070080FFE8
:10204000F0B50D00002789B0110006001C00280023
:1020500003233A0000970EF0D5FA0E20BD420FD0B0
:10206000012D0FD1102102AA04A80CF0C3FC216895
:1020700002A83A0001F090FB300004A9FFF760FFCE
:1020800009B0F0BD2068830722D1164B02689A423E
:102090001ED104A9FFF7C4FF134B050020680340BD
:1020A000062B13D1C00821F0A7F80400002C04D19E
:1020B0002800049906F072FD04001020049F1FF010
:1020C000D6FD06608760C5604460D9E74468EDE7E7
:1020D00004A9012201F0E6FD002205990498FFF70A
:1020E00065FFCDE77C960200070080FFF0B58DB05C
:1020F0000400039101F038FB04A906002000FFF75B
:102100008FFF039B01902F489A0705D11B688342DC
:102110000AD02D4A934207D0C368002202930121BE
:10212000029C03ABA04703900024039806AA05A9CC
:1021300001F0A2FC2500059BA3420ED82900002532
:1021400008A822F089FD0A9C059BAB4221D83000EB
:1021500008A9FFF7F5FE0DB0F0BD069BA700D85902
:1021600001F002FB864202D0184805F0F1FB002C7A
:1021700001D0049BED18069BD859154B0340062B44
:1021800005D1C00821F03DF82D180134D3E780684F
:10219000FAE7002D06D02000049A019926F094FC5D
:1021A000049BE418069AAB00985807A9FFF738FF7C
:1021B000079A0100200026F087FC079B0135E418F0
:1021C000C2E7C046A0D002000CE402009D25030037
:1021D000070080FFF0B58BB0049008680C000692F1
:1021E000079301F0C1FA0600606801F0BDFA86426B
:1021F00002D06068FFF724FE08A92068FFF710FFEF
:10220000050009A96068FFF70BFF089A2F00AB18BB
:102210000393049B0590022B19D9A3681D498B4297
:1022200006D0012130000091290002F07FF907005B
:10223000049B032B0BD0E368164A934207D001227C
:10224000290000923000089A02F070F90390039B75
:102250003800D91B069B059A0093099B1FF001F9D2
:10226000011E07D10120079B4042002B0BD00A48DA
:1022700005F0A8F9094B9E4207D128001FF03BFB4F
:102280004100012008430BB0F0BD401B012140007C
:10229000F8E7C04654E20200E22503002899020054
:1022A000F0B587B0039008680D0001F05DFA04A94D
:1022B00007002868FFF7B4FE05A904006868FFF767
:1022C000AFFE039B06002000022B07D9012321004B
:1022D00000933800AB68049A02F028F9059A041BB1
:1022E0000499A418064B8C4206D8310026F0DEFB78
:1022F000034B002800D1034B180007B0F0BDC046C7
:10230000DCD00200E4D0020073B50D00060069467F
:102310002868FFF785FE01A904006868FFF780FEC2
:102320000100022E02D9084805F040FB019A0098EE
:10233000064D824206D8801A201826F0B7FB0028E6
:1023400000D1034D280076BDF6250300DCD0020045
:10235000E4D00200F0B58FB0079010680C001600B2
:1023600001F002FA0690012C31D0706801F0FCF9FE
:10237000069B834202D07068FFF762FD70680DA96A
:10238000FFF74EFE0D9B0890099330680DA9FFF7EB
:1023900047FE0D9B0B900493079B012B1CD1049BC4
:1023A0005D1E01235B420A9300242700049B0394D3
:1023B0000593059B002B13D1039B002B23D1214BAD
:1023C000069A0E209A4200D01F480FB0F0BD072396
:1023D00009931E4B0893D8E7012300250A93E3E7EE
:1023E0000B9B09995A190123089800931FF039F89B
:1023F000002816D1039B002B19D1079B002B09D174
:102400002F00049B5C1E049B0134E21B934212D1FB
:102410003068DAE7079B2C00012B0AD001232F003C
:1024200003930A9BED18059B013B0593C1E72C0024
:10243000F7E7039FE7E70B9B0698D9191FF030F8E1
:10244000C3E7C046289902006C9602002A2A0300BE
:10245000F0B589B0049008680D0001F085F9070017
:10246000686801F081F9874202D06868FFF7E8FCEC
:1024700006A92868FFF7D4FD060007A96868FFF7DA
:10248000CFFD069A3400B3180393049B0590022BEA
:1024900019D9AB681D498B4206D001213800009143
:1024A000310002F043F80400049B032B0BD0EB68CF
:1024B000164A934207D00122310000923800069A52
:1024C00002F034F803900025079BAB4212D1039B26
:1024D0002000191B1FF01EFA01304500012028437F
:1024E00009B0F0BD2000059926F0E0FA002808D1D7
:1024F00001353400079A039BA6189E42F2D96D005D
:10250000ECE720001FF0EEF90600F2E754E20200CB
:1025100010B5010001481FF0B2F810BD35190200D6
:1025200010B5010001481FF0AAF810BD47190200BC
:10253000F7B50600080001A9FFF772FD019B07002F
:10254000002B01D11248FEBD124B9E420DD0124B02
:1025500000249E420AD0385DB0470028F2D0019B8B
:102560000134A342F7D80D48EDE700242500385D7B
:1025700001F0E4FE002803D0385DB047051EE1D02D
:10258000019B0134A342F2D8002DECD1DAE7C0461A
:10259000DCD00200A5430000BD430000E4D00200EF
:1025A00010B501000148FFF7C3FF10BD254300002F
:1025B00010B501000148FFF7BBFF10BD3D4300000F
:1025C00010B501000148FFF7B3FF10BD55430000EF
:1025D00010B501000148FFF7ABFF10BDA543000097
:1025E00010B501000148FFF7A3FF10BDBD43000077
:1025F000F0B585B005000C00170001F0B5F869468C
:1026000006002800FFF70CFD0500042F23D10098D9
:10261000A30715D1114B22689A4211D1210001AABA
:102620000BF0B4F8002802D10D4805F0BFF901996C
:10263000029A3000521A69181EF032FF05B0F0BD40
:10264000002301002200300001F04CFA2B5C012035
:102650005B001843F2E70020F0E7C046F494020064
:102660000826030070B50A001C008EB0002900D1B6
:1026700076E018683B4E03003340062B05D08307F5
:1026800026D1394B0168994222D1023A012A64D8F5
:102690000AA9FFF7C5FC050020680640062E15D1E3
:1026A000C00820F0A9FD0400002C04D128000A99DC
:1026B00006F074FA040010200A9E1FF0D8FA2B4B83
:1026C00086600360C56044600EB070BD4468EBE78F
:1026D000012A42D103001340DBB2002B10D044107A
:1026E00021000AA822F0B8FA0C9B00212200180051
:1026F000019326F005FA0AA91C48FFF721FCE3E73D
:1027000003A91FF05AF8002805D0049A0399174826
:102710001EF0C6FED8E7206801F024FA1021002838
:1027200000D0411006A822F087FA20680AA904F018
:1027300025FB0400200004F083FB002801D106A93A
:10274000DAE701F0F5F8FF2802D9094804F03AFF6A
:10275000C1B206A822F0CEFAECE7064805F0F8F878
:102760000548B1E7070080FF289902007C96020027
:1027700039260300522603006C96020073B504004C
:10278000080001A91600FFF74BFC0500042E06D136
:102790000300019A2000074924F0B5F973BD200019
:1027A000054924F0EAF8012329002000019AFFF7E7
:1027B00063FBF3E76C260300DC4F03000A001A4BAF
:1027C00073B51A4005000C000340062B08D1401ACF
:1027D000062A24D0E80820F00FFD0600606805E016
:1027E0004668062AFAD1C80820F006FD002E05D05A
:1027F000002803D0B04201D0002076BD69462800F1
:10280000FFF70EFC01A905002000FFF709FC009A64
:10281000019B01009A42EFD1280026F047F943427C
:102820005841C0B2E9E7C046070080FF084B07B532
:102830000340062B08D0830704D10268054B926938
:102840009A4201D0FFF7FCFA01A9FFF7E9FB0EBDA0
:10285000070080FF012E00000A4B13B503400C0057
:10286000062B08D0830704D10268074B92699A426D
:1028700001D0FFF7E5FA01A9FFF7D2FB019B236026
:1028800016BDC046070080FF012E0000F0B59BB0CA
:102890000B900591089210210EAA12A809930CF032
:1028A000A9F8059B089A934208D30B9A12AB13CB55
:1028B00013C21B6813600B981BB0F0BD059B197801
:1028C0005F1C7D290ED1089BBB4208D9059B597816
:1028D0007D2904D112A822F00DFA059707E0B1482E
:1028E00004F070FE7B2906D012A822F003FA059BA3
:1028F00001330593D5E7089BBB422ED9059B597838
:102900007B29E7D03B007D2903D0212901D03A293A
:1029100025D100273C0000211A780691212A0BD1ED
:1029200008995A1C914223D95A780692723A012A80
:102930001ED80233994210D900211A7805913A2AFB
:1029400026D15A1C5B7805927D2B25D00122059B50
:1029500015E0089A01339A4201D19348C0E71A78EA
:102960007D2A03D0212A01D03A2AF2D11C00D2E7D5
:102970008E48B5E719787B2905D1013201330899D2
:102980008B42F7D3E9E77D29F8D1013A002AF5D146
:10299000059A0593079205E0089B059A9342DCD9B6
:1029A00000230793059B1B787D2B01D0804897E778
:1029B000002F48D000233878169301F0CBFC002874
:1029C0003DD0099B1B680A93002B01DD794887E7FE
:1029D00016AA210038001EF02CFD209A169B013A01
:1029E00006009A4203D8744974481FF014FD219AD6
:1029F00001339B009D580122099B52421A60A64256
:102A000031D26F4804F0D2FF0136A64204D23378A7
:102A10002E2B01D05B2BF7D1F11B01223800FFF7E1
:102A2000C5FA0022070001002298FFF71BF80028D2
:102A300007D13900634820F087FB0DF0C3FD3E004D
:102A4000E3E74568DBE7099B1B68002B01DA5E487A
:102A500046E7209A013A9342C5D2013321999A0060
:102A60005558099A1360079B002B18D1069B002B21
:102A700005D0069B733B5A1E9341DBB2069310218F
:102A800010AA16A80BF0B6FF2900069A10A800F0AD
:102A900083FE4E4816A9FFF753FA050002E0069B95
:102AA000002BE6D101235B420D931093079B002B73
:102AB00000D1ACE0FDF770FC229B059A0293219BAC
:102AC00007990193209B16A80093099BFFF7DEFE50
:102AD00016A822F0FDF80027179B0400C3180A93DC
:102AE00003780693BB4208D0394E1900300026F017
:102AF00043F8B84200D16DE1013423782B2B4ED03E
:102B000000262D2B02D0202B01D10436013423784E
:102B1000232B02D1133B1E4301342378302B07D1E2
:102B2000069A002A01D13D320692002F00D11F00E3
:102B300020000A990DAA1EF07CFC037807902C2B2C
:102B400004D10C3B1E43030001330793079B1B7802
:102B50002E2B06D107980A99013010AA1EF069FCA5
:102B60000790079B1C78002C38D02100194826F0CC
:102B700003F8002803D0079B5B78002B2ED0164863
:102B8000AEE63900300025F0F7FF002804D03B0006
:102B90000234069F0693B0E707000690ADE70226D1
:102BA000B4E7C04671260300B2260300992603004D
:102BB000CA260300EE2603003827030008AA0200F5
:102BC0005127030044AA02006E270300289902003F
:102BD000B8270300BD270300CD27030016A822F065
:102BE0004CF8069B002B08D12800FFF705F93E237F
:102BF0000693002801D1023B0693002F00D1203715
:102C000006231E420BD0732C05D1754868E6079E3B
:102C100034003700E8E7632C01D1724860E6069B78
:102C20003D2B20D05E2B20D03C2B01D13B3B1E43C3
:102C30002800FFF7C1F8002869D0782C09D8612C4A
:102C400015D8472C25D8442C61D8002C48D0252CE9
:102C50005DD028001EF09AFD2200030062496348FF
:102C600005F0D8FAE9E64023E1E78023DFE720001A
:102C700062381628EDD816F097FF1825334A4A4ACD
:102C8000ECECECECECEC333CECECECECECECECECED
:102C90000E00582CDDD10022230003920D9A173B21
:102CA000029201971022009607E0002303930D9BE8
:102CB0000222029361230197009629000EA811F0C9
:102CC0005FFD14E6280000F033FE0D9B16A9087086
:102CD00001220193330000970EA811F0F1FC06E6E3
:102CE000002303930D9B0A22029301976123009610
:102CF000E3E7F30602D580239B001E4300230393E2
:102D00000D9B08220293019761230096D5E72800C6
:102D1000FFF772F8002839D0002C23D06E2C21D078
:102D2000252C21D0242C16D9472C10D8442C12D96C
:102D3000280000F063FE109B220002930D9B011CF3
:102D40000193330000970EA823F092FECFE52300F5
:102D5000653B022BECD928001EF018FD2200030071
:102D600023497CE76724E3E72800802400F046FE3F
:102D7000204917F08FFD109B640002930D9B344394
:102D8000019366222300011C0097DCE7069B3D2B84
:102D900001D11948A4E5002C01D0732C13D116A938
:102DA0002800FFF759FD109B0100169A002B00DA4E
:102DB0001092109B9A4200D916930D9B169A01937C
:102DC0000097330088E728001EF0E0FC2200030093
:102DD0000A4944E76778002F00D0D2E606978CE6D0
:102DE000E627030012280300452803008CAD0200EB
:102DF000762803000000C842AA280300DF28030049
:102E0000F0B5A1B005000C000D920A2800D0F7E142
:102E10000DAB0F93012315001093032305921D4062
:102E20001A423CD11368B24A934206D105980FAAC0
:102E300010A923F093FD059502E0AE4A9342FAD122
:102E4000109B200007930F9B11A90893FFF7E8F848
:102E5000002309900A93A30705D1A74A23689B1A68
:102E60005A425A410A9214AA102118A80BF0C2FD26
:102E7000119A00279446099B099C63440493049B80
:102E8000A3420FD8079B9D48BB4229D10A9B9A4871
:102E9000002B00D19A4818A9FFF752F8C9E1002386
:102EA0000593CDE72178252904D018A821F022FF29
:102EB0000134E4E7049B661CB34202D8914804F055
:102EC00081FB6178252904D118A821F013FF340073
:102ED000EEE70025282915D1059BAB4202D18A488F
:102EE00004F036FDA01C06003378292B23D1311ABB
:102EF0000122FFF75BF801000598FDF7D9FC0127D7
:102F00000500013600233400402200263021042031
:102F10000B9320330693049BA34213D800231293F0
:102F2000049BA34231D923782A2B6DD1079BBB4246
:102F300021D87648D4E7049BB34201D17448BEE758
:102F40000136D1E723782D2B03D12C3B1E430134CE
:102F5000E1E72B2B01D1293BF8E7202B01D10643D8
:102F6000F5E7232B04D0302BD8D116430691EEE79A
:102F700010230B93EBE77B1C0C93089BBF00F858C6
:102F800000F0D6FC0C9F1290013401235B42139396
:102F9000049BA34292D923782E2B17D1049B601C4B
:102FA00083428BD963782A2B35D1079BBB42C0D98A
:102FB0007B1C0C93089BBF00F85800F0B9FC0C9FD9
:102FC00013900234049BA34200D877E7002D06D16A
:102FD000079BBB42ADD9089ABB009D5801372278A8
:102FE000472A45D8442A48D9280000F007FD139BFA
:102FF00022780293129B011C0193069B14A8009354
:10300000330023F035FD53E72000049912AA1EF087
:1030100010FA0400B9E70023049913AA13931EF0D1
:1030200008FA0400CEE7202827D816F0D1FDDC00EE
:103030002600260026002600260026002600260060
:103040002600260030007D00DDFFDDFFDDFF2600CD
:103050007D00260026002600260026009B00260074
:103060002600AB00AB0026007D0026002600DC0019
:1030700010005838C3B2202BD5D9099B2549E41A32
:1030800025481300009405F0C5F80DF09BFA234B7A
:103090002B40062B05D0AB0716D1194B2A689A4254
:1030A00012D11CA92800FFF7D7FB1C9A0100012AA6
:1030B00001D01B4814E7129B019320230093330097
:1030C00014A811F0FDFAF3E62800FEF775FE0028BB
:1030D0000BD0280000F02CFC129B1CA90870019357
:1030E0002023012200933300EAE70E48F8E6C046A9
:1030F0000CE402007C9402007C960200D6290300B6
:1031000028990200112903002329030050290300F4
:103110003A290300A12903008CAD0200070080FFBB
:10312000772903009029030003222B001340022B70
:103130000AD17C4B2B40062B06D0FF23DB05E81879
:10314000904307F0F5FF0500139B0A220393129B9F
:1031500000960293069B01936123290014A811F0A5
:103160000FFBA5E60B9B002B02D084239B001E4384
:10317000139B08220393129B00960293069B0193D4
:103180006123EAE7102116AA1CA80BF033FC237870
:103190001A00723A51424A41D2B2722B09D00A9BAC
:1031A000002B06D0AB0704D15F4B2968994200D1B0
:1031B0000422290016A800F0EFFA139A1D9B002A9A
:1031C00000DA1393139A9A4200D91A00129B1E999F
:1031D0000193202314A80093330011F071FA1CA866
:1031E00021F04BFD64E61300139A173B0392129AE9
:1031F0000292069A01920B9A164300961022ACE7AF
:10320000080000F0B1FA16A906002000FEF708FF3A
:103210000590072D20D10D9818A900F0C7FB0028B4
:1032200007D01899002906DC404B0E209E4200D0A2
:103230003F4821B0F0BD169B1CA8594321F00CFD5E
:103240001E9B0121059804930093169A189B21F068
:103250008EFA30001CA91FE60D9800F085FA864210
:103260000FD10D981CA9FEF7DBFE1C9F04901D2DAD
:1032700017D8182D4ED8052D21D0122D1FD0002083
:10328000D7E7294B0D989E4209D101221CA91EF0B7
:1032900094FA0028CDD01C9B1D9F0493E7E7FEF70E
:1032A000CFFD1F2DEBD10123049A009316993B000B
:1032B00005981EF0D6F800282AD11E48B9E7169BBB
:1032C000002B07D10D9800F04FFA864202D10D9CD9
:1032D0002000AEE7002FFBD0169B1CA8F91821F0A8
:1032E000BBFC1E9B169A18000599069325F0ECFB73
:1032F0001E9B3A0018000593169B04999C46604457
:1033000025F0E2FB30001CA9FEF71AFE0400DFE7FF
:1033100009488EE72800049B169A0599009721F02A
:103320005CFAC8E7070080FF7C960200289902003B
:103330006C960200DCD00200E4D00200F0B505007B
:1033400087B008680C0000F00FFA0090012D28D912
:103350006668022D26D0A06800F0EAFA0500002178
:10336000080021F05CF804A901902068FEF758FEDF
:10337000049B0400C7183E4B9E4241D1BC422AD256
:10338000207800F0CFFF00280FD1002D0FD12100B1
:1033900000983A1B1EF084F80100019808F0A6FE80
:1033A00019E0334E01256D42D9E70134E6E72600E6
:1033B000307800F0B7FF002802D10136B742F7D8C5
:1033C00021000098321B1EF06BF80100019808F0F4
:1033D0008DFEB74208D8019807B0F0BD0136B7425C
:1033E00002D1002D07DCF6E7307800F09BFF0028C3
:1033F000F4D1002D00DD013DB742ECD93400C4E723
:10340000300000F0B1F9009B834202D03000FEF79B
:1034100017FD300005A9FFF71FFA059B0390002B4D
:1034200013D1144804F0CEF83E0021000098321B5E
:103430001EF036F80100019808F058FEBE42CAD2CC
:10344000059BF418002D00DD013D2600059B02932D
:10345000002DE9D0029BF3189F42E5D33000029A79
:10346000039925F023FB0028DFD00136F0E7C046A2
:1034700054E202000B2A0300F0B507000C0089B0EB
:10348000022807D821003800FFF758FF0400200069
:1034900009B0F0BD086800F067F906A9029020683D
:1034A0006568FEF7BDFD0090A06800F041FA061EB9
:1034B000E8DB431C18000021039320F0B0FF2C4BE5
:1034C00004009D4202D12B4804F070FA280007A99D
:1034D000FFF7C2F9079B0490002B02D1264804F0A5
:1034E00071F8069A35009446009B63440193079F48
:1034F000019BDE1B002D0BD0009BB34208D83A0085
:103500003000049925F0D2FA002821D0013EF1E7DD
:10351000E368AE00009A9F19019B009902989A1ADD
:103520001DF0BEFF3860002DB1D0039B5D1BE3682A
:10353000AF0099193A00180025F0CFFA636800210E
:103540005A1BE3689200D81925F0DAFAA5609EE7C5
:10355000E268AB00D3180593019B02989A1BD21B1B
:10356000F1191DF09DFF059B013D18600196BEE716
:1035700054E202001B2A03000B2A030070B50C0062
:103580008AB0050004A920681600FEF749FD002353
:103590000593049B0100C218029605AB06A801948E
:1035A0000095FFF773F906A90248FEF7C9FC0AB0B7
:1035B00070BDC0462899020010B50400034B03609B
:1035C000403023F01FFD200010BDC0466898020067
:1035D00010B50F4C200024F019FF002808D020005F
:1035E00024F0E5FE0B4B1B68984202D10CF04CFE18
:1035F00010BD3F21084A138801330B400749098851
:103600008B42F5D01188064C13806054F0E7C04619
:10361000B00100206C020020242F0020262F002063
:103620002F2F0020002210B5044B05491A80054BAE
:1036300005481A8024F0EFFE10BDC046242F00205C
:10364000D1350000262F0020B0010020034B188840
:10365000034B1B88C01A431E98417047262F002039
:10366000242F0020084A094B10881988884201D16C
:1036700030BFF9E713880649C85C3F21138801333E
:103680000B4013807047C046262F0020242F0020B7
:103690002F2F002070B504004518AC4205D02178CA
:1036A000024824F088FE0134F7E770BDB001002025
:1036B00070B504004518AC420DD02378064E0A2B95
:1036C00003D10D21300024F076FE2178300024F063
:1036D00072FE0134EFE770BDB001002070B5040048
:1036E0000825002C08D02100082C00D92900034807
:1036F000641AFFF7CFFFF4E770BDC046312A03001C
:1037000070B5050004000826002C08D02100082C04
:1037100000D931000448641AFFF7BCFFF4E7280021
:10372000FFF7DCFF70BDC0463A2A030010B5010068
:10373000014821F0FBF810BD20000020142313B530
:10374000064C009319221821200013F01DFF2000C1
:10375000034A044925F03EF913BDC046B0010020DC
:1037600000000020B935000003000748DA070AD43A
:10377000064A07481A40062A05D0032205481A407F
:10378000022A00D018687047F8CA0200070080FFBC
:1037900028990200CCA1020070B50D0004001600AB
:1037A000FCF7FAFD2800FFF7DFFF8368002B04D049
:1037B000320029002000984770BD4268024920006D
:1037C00023F0A1F9F8E7C046432A030010B50A0028
:1037D00001000248FFF7E0FF10BDC0467CE4020094
:1037E000F7B5040008000E001FF0B9FC00280FD048
:1037F0006946300001AA04F0AFFD009B002B07D002
:103800002000154923F0B9F8009BDD1E002D09DAD0
:10381000310002222000FFF7BFFF20000F4923F0F4
:10382000ACF8F7BD019AAF00D3195B68D2592000FC
:103830000B4923F068F9019BDF19BA68002A05D10A
:103840002000064923F099F8033DDFE720000549F1
:1038500023F059F9F8E7C046482A03005B45030006
:103860006C2A0300812A030010B50400FFF77CFFD7
:10387000054B0069984203D0431E9841C0B210BD69
:10388000200021F075F9FAE70DE7000070B505009A
:103890000C0001208D4203D0214B9D4201D100201C
:1038A00070BD9942FBD001231D4204D01942F6D1CC
:1038B0002B000D001C002A001A4B1A40062A05D0C6
:1038C000AA0711D1184A296891420DD12340062B2D
:1038D00005D0A307E3D1144B22689A42DFD121001F
:1038E0002800FEF76BFFDBE72340062BD7D0A307AA
:1038F00003D10D4B22689A42D1D02800FFF734FF44
:103900008369002BCBD0220029001B209847002878
:10391000C5D0064BC01A43425841C0B2C0E7C046AA
:1039200054E20200070080FF28990200E4D0020060
:10393000104B10B5984219D00F4A0123904217D06E
:10394000184201D0184110BD830706D10B4B026805
:103950009A4202D10CF00EF8F5E71DF017FF084966
:103960000200084804F056FC0CF02CFE0020EAE7A8
:103970001800E8E7DCD00200E4D00200F8CA020038
:103980008A2A030014AD020010B5C30705D48307CB
:1039900006D1054B02689A4202D121F0BFFB10BD4F
:1039A000FFF7C6FFFBE7C046F8CA0200104B70B530
:1039B0000D000124984203D100230B6022000AE08D
:1039C0000C4B984201D10C60F8E7020022402042E3
:1039D00003D040100860100070BD8307FBD1064B78
:1039E00001689942F7D10BF0C5FF2860E6E7C046B1
:1039F000DCD00200E4D00200F8CA0200184B10B577
:103A0000984228D0174B984227D0C30703D54010BF
:103A100017F04AFA10BD0323184206D1124A016872
:103A2000914202D121F083FBF4E702001A40022AFE
:103A300008D10E4A0240062A04D0FF22D20580187F
:103A40009843E7E71DF0A2FE09490200094804F087
:103A5000E1FB0CF0B7FD0020DCE7FE208005D9E794
:103A6000DCD00200E4D00200F8CA0200070080FFA8
:103A7000A22A030014AD020010B583070CD103681D
:103A80000A4CA34202D122F069FF10BD084CA342A8
:103A900002D120F0DBFCF8E71DF078FE05490200BA
:103AA000054804F0B7FB0CF08DFDC0460CE40200A5
:103AB000A0D00200BC2A030014AD020013B50C0014
:103AC00001A9FFF7D9FF019BA34206D022000349B9
:103AD000034804F09FFB0CF075FD13BDDF2A0300C3
:103AE0008CAD0200F7B506000D0014001F00D307CF
:103AF0000FD554100194019B002B01DA5B1901933F
:103B0000019B002F1BD0002B15DA00230193019895
:103B1000FEBD100001A9FFF749FF0028EBD12000EE
:103B200075681DF033FE2A0003000A490A4804F0B4
:103B300071FB0CF047FDAB42E9D90195E7E7002B9B
:103B400001DBAB42E3D372680449054804F062FB31
:103B5000EFE7C0460C2B030014AD0200302B03002E
:103B600008AA020010B50400830710D10D4B0268AB
:103B70009A420CD10C4B0340062B06D1C0081FF013
:103B800040FB43000120184310BD8068F9E7200086
:103B9000FFF7EAFD4369181EF6D02100012098477F
:103BA000F2E7C0467C960200070080FF164B70B516
:103BB000040000209C4203D0144DAC4201D10120EE
:103BC00070BD134B00209C42FAD0012326006010E8
:103BD0001E401C4215D12000FFF7C6FD4369002B93
:103BE00009D0210030009847002804D0401B4342F0
:103BF0005841C0B2E4E72000FFF7B4FF0028DED050
:103C00000138431E9841F4E7DCD00200E4D0020002
:103C100054E2020010B50400FFF7A4FF002809D108
:103C200020001DF0B3FD04490200044804F0F2FA3C
:103C30000CF0C8FC10BDC046462B030014AD0200BA
:103C400070B504000E001500FFF78EFD036A002B0F
:103C500005D02A00310020009847002818D1200004
:103C60000C4E002D08D11DF091FD02000A493000D4
:103C700004F0D0FA0CF0A6FC042D04D11DF086FD52
:103C800006490200F3E71DF081FD05490200EEE759
:103C900070BDC04614AD0200672B0300922B0300D9
:103CA000B32B030010B51DF088FD002802D1024897
:103CB00003F04EFE10BDC046E02B0300F0B505003A
:103CC00089B008680C00FEF7B1FD039003A81DF051
:103CD0008DFD00270126039B01900593059B197814
:103CE00000291AD1380010F0D7FB0122060005A9DF
:103CF0006068FFF7D7FF059B069A04939B18009313
:103D0000022D20D9A068FFF713FE002818DA069BC1
:103D1000C01815D5274803F055FC080000F01AFB21
:103D2000002805D13000059B3F1801330593D5E7E6
:103D300005A81DF06DFD059B1B78732BF3D1F1E7F2
:103D4000049B181804900024BC4202D3300009B030
:103D5000F0BD039B0125187800F0FCFA002803D081
:103D600003A81DF055FD05000498009A43199A42D6
:103D7000D0D3039B1B78732B0DD06519039BAC42EA
:103D800013D0197804AA019806F076FC0134331D8B
:103D9000A2009850F2E72900FEF720F9049B5D1974
:103DA0000495651C0234A4003051039B2C000133A0
:103DB0000393C9E7052C0300F0B589B00391009285
:103DC0000193FEF733FD049004A81DF00FFD0024BD
:103DD00001270290019B9C4201D309B0F0BD049BD6
:103DE00018780028F9D000F0B5FA3D00002803D07B
:103DF00004A81DF00DFD0500039B009A5B199A4273
:103E000002D21A4803F0DEFB049B66191B78732B61
:103E100027D10E9B661CA400E0583A0005A9FFF7C5
:103E200041FF069CAC4200D92C0022000599039862
:103E300024F04AFE039B2A1B1819002124F060FE7F
:103E4000039B5D190395049B340001330493C1E780
:103E50000E98A2001978825803AB029806F06CFC09
:103E60000134049BA642F3D1EDE7C046052C0300C4
:103E7000F0B50F0089B0039001CF0D001DF0DCFC00
:103E80004410210004A820F0E7FE069E2200002135
:103E9000300024F035FE039B31002868013B3219C5
:103EA0000097FFF789FF04A90248FEF749F809B017
:103EB000F0BDC0467C96020030B50C0089B005000C
:103EC0000222606805A9FFF7EDFEA068FFF730FD4C
:103ED000002806DA069B0393C01802D5084803F0B1
:103EE00071FB0599069AEB1E8A18091820000C3000
:103EF00000902068FFF760FF024809B030BDC0465F
:103F0000052C030054E20200F8B5214E35686968BB
:103F100001292DD9AB684C1E1A5D0A2A28D15A1ED8
:103F2000002C01DC220008E0105D0A28FAD0013CD8
:103F3000F6E7985C202802D101329142F9D8002C92
:103F40000BDD501C814208D1601E002805D00138CD
:103F50001F5C0A2F0CD0202FF7D05B18023B1B7878
:103F6000141B3A3B5A425341A408E418013C00D2C6
:103F7000F8BD084F04223900280020F041FE04213A
:103F80003800FFF787FB336904333361EEE7C0463F
:103F900010020020E12E030010B52022002102486B
:103FA00024F0AEFD10BDC046B82B00200200080072
:103FB000002110B5074B1A605268996019750139D4
:103FC0005A60D9601A6198611DF0B6FBFFF79CFF3B
:103FD00010BDC04610020020F8B503780400002B85
:103FE0001BD00E4F386E002804D0210024F0D2FDE3
:103FF000002812D0200024F0D7FD461C30001DF010
:1040000043FE051E09D03200210024F05DFD1C2274
:104010000349044824F061FD3D66F8BD582B00209B
:10402000B82B0020BC2B0020F0B5B84C0200206853
:10403000A568436885B00193002D00D0FDE0531EB4
:10404000042B11D8636801998B4200D195E0012AB5
:1040500000D12DE1022A07D123696268934200D979
:104060005CE10122524288E0032A00D185E0042A63
:1040700000D133E1052A00D107E1062A0ED12369D8
:10408000019A9342AD416D42002DEADD236829007B
:1040900098682369C018FFF7FDFA1FE00B2A21D1A9
:1040A000019B2269991A20F0BBFE2368019A5B6884
:1040B000934204D213002269981AFFF721FB226869
:1040C000236951689068C91AC018FFF7E3FA23689A
:1040D00058682369C01A401BFFF700FB23695D196C
:1040E0002561BEE70E2A13D1E368002BB9DB013B43
:1040F0006268E360019B991A20F092FEE368002B4E
:1041000018DB834A16339B00D318996820680FE0A8
:10411000102A16D1E368062BA3DC7D4A5D1C1733F9
:104120009B00D318996800299BD06368E5604360C1
:1041300020F03BFE63682269D61A22685568ED1AA2
:104140000AE0152A0CD12369626861689A1A20F086
:104150006EFE236962689E1A0127002E2FDCA4E7F9
:104160000D2A0DD16B481DF0E7FA206820F0B0FD54
:104170006368C018FFF730FF0022100005B0F0BDE3
:1041800001231B2A62D0082A01D07F2A20D121696D
:104190006368994200D864E701228668D21AF75C06
:1041A000202F13D1D71801339942F8D80126032FB5
:1041B00000DD03363200891B20F039FE0127300074
:1041C000FFF78CFA23699E1B26617BE00126F1E74D
:1041D000092A28D1636822698068D11AC0184E4A1A
:1041E00003ABFDF7EDF9071E00D13AE70026431CAB
:1041F0000BD1A0691DF0A0FA63682269D11A226868
:104200009068C018FFF746FA4FE723692068F11855
:10421000039B01365A1C03921A7820F0EFFDB74237
:10422000F3D13D0041E71300203B5E2B00D918E796
:10423000216920F0ECFD012537E7012D08D1042389
:104240004F2A03D002235B2A00D00023A36008E793
:10425000022D20D11300303B092B03D803232275F4
:10426000A360FEE60023A360412A00D152E7422A60
:1042700000D139E7432A00D101E7442A00D1EBE617
:10428000482A15D0462A00D0EBE60027019B226978
:104290003E009D1A11E00021032D2DD10D000F00CD
:1042A0000E007E2A09D1237D312B01D0372B0DD171
:1042B00000252F00236962689E1A0023A3609E4296
:1042C00000DD7CE7002F00D1DEE6EEE61A00FB25DC
:1042D000343A2A42D9D00D00332BEED12169019B0B
:1042E000994206D2012220F0A2FD002501272E00CE
:1042F000E3E700252F00FAE7042D04D1462AC4D0B5
:10430000482AD5D0A1E7A160ABE6C0461002002044
:10431000582B0020C16103007CE402000025012627
:104320002F004CE7030000207F2B03D8024AD05C0B
:104330008007C00F7047C046162C03000300002002
:104340007F2B03D8024AD05C0007C00F7047C046DD
:10435000162C0300030000207F2B03D8024AD05CF8
:104360004007C00F7047C046162C03000300002012
:104370007F2B03D8024AD05C4006C00F7047C0466E
:10438000162C030000237F2808D80C22044B195C4C
:104390000123114202D15F38434243411800704764
:1043A000162C0300030000207F2B03D8024AD05CA8
:1043B000C006C00F7047C046162C03000300002043
:1043C0007F2B03D8024AD05C8006C00F7047C046DE
:1043D000162C0300044B88600B60044B08004B60F4
:1043E0000023CB607047C046D0E20200891A020069
:1043F00013B50400080001A9FDF712FE002C03D03C
:10440000012C07D0002016BD019B0548002BFAD1D6
:104410000448F8E701991DF07DFA40002043F2E7D7
:10442000E4D00200DCD00200F0B585B00400080042
:1044300003A91500FDF7F4FD0600002D07D10300C8
:10444000039A20002F4922F05EFB05B0F0BD039BCC
:104450000200C318002101200193019B934206D85A
:104460002727002900D0053F3A0027491AE0137892
:10447000272B08D0223B5D426B41DBB20132002B7F
:10448000EBD02727F0E700230100F7E730001DF00D
:104490000DFA050030001DF025FA0600AF4205D1E7
:1044A0003A001A49200022F02EFB14E018495C2D36
:1044B0000ED02B00203B5E2B01D82A00D5E71549F2
:1044C0000A2D05D014490D2D02D0092D0CD1134908
:1044D000200022F052FA019BB342D7D83A002000C4
:1044E000094922F010FBB0E7FF2D02D82A000C4941
:1044F000D8E780232A000B495B029D42D2D30A49A8
:10450000D0E7C0466C2603008725030086250300FC
:104510008A2503008D2503009025030093250300C1
:1045200096250300962C03009D2C0300F7B51E0072
:1045300008AB1D78294B0C001700984206D12B00C0
:1045400032003900FFF7CEFA2018FEBDF30715D56B
:1045500076100196019BE719002B2ADA781E0021BC
:104560003F260127844219D9002900D00193200059
:10457000002DEAD11A491B481DF04DFF300001A95A
:10458000FFF714FA0028E5D130001DF0FFF81649B6
:104590000200164803F03EFE0CF014F80278B24315
:1045A000802A01D039000133421E002BCDD01000EB
:1045B000D8E72000002101243F26B84204D3002977
:1045C00000D001933800D3E7013BBED32100013076
:1045D0000278B243802AF0D10130F9E77C960200DC
:1045E000CC2C030008AA0200A42C030014AD020086
:1045F000F0B587B004000E001700FFF7B5F802A968
:1046000005002000FDF70CFD0400042F4FD1B30777
:1046100034D1284B32689A4230D105AB300004AA1D
:1046200003A91CF067FD059B234FBB4204D0032B5D
:1046300002D0224803F0BAF9039B2600BB4207D000
:104640000122210000922800029AFFF76FFF060066
:10465000029A049BA118BB4206D0012128000091B8
:104660002100FFF763FF01000E208E4204D88A1B51
:10467000280031001CF014FF07B0F0BD002321001A
:10468000029A009328003300FFF750FF0023C3561F
:1046900001210278002B06DA4023012101E00131DB
:1046A0005B081342FBD10122FDF780FCE4E7002008
:1046B000E2E7C046F494020054E202000826030038
:1046C000014B58687047C046582B0020014B1868B2
:1046D0007047C046582B0020F0B5194F87B03B6893
:1046E000050000200C0001931CF0C4FC3860009011
:1046F00020681DF044FE019B06003B60114F022D17
:1047000003D0A068FFF730F8070021006368083184
:10471000A81E03930FF0C0FE009B04900593002297
:1047200003AB0321380002F033FA074B04009E422A
:1047300003D0010030001EF00BFE200007B0F0BDDA
:10474000582B002070D6020054E202001FB56946C3
:1047500002F014FB0400200002F072FB002802D1DA
:10476000044804B010BDFFF721FA0028F3D1024835
:10477000F7E7C046E4D00200DCD002001FB569466E
:1047800002F0FCFA0400200002F05AFB002802D1DB
:10479000044804B010BDFFF709FA0028F3D002481E
:1047A000F7E7C046DCD00200E4D0020010B5FFF706
:1047B0005BF8034B002800D1024B180010BDC04627
:1047C000E4D00200DCD0020037B5FFF7B1F80300F7
:1047D00001A87F2B05D8012103700122FDF7E6FB1C
:1047E0003EBD80219A0909018B420BD240214942EA
:1047F0000A4302703F221A4080235B4213434370F6
:104800004231EAE78024190B6402A3420ED220242D
:1048100064422143017080215F3449422240234099
:104820000A431943817042700321D6E78824640348
:10483000A34212D210249D0C64422C4304703F25E5
:104840008024294064422A402B40214322432343B1
:10485000417082700421C370BFE7014802F0B2FECC
:10486000E62C03007FB50B00012803D10021186856
:10487000FEF7ACFF102102A820F0DEF90C4902A8D7
:104880001DF00AF8032804D10A481EF057FC0BF06B
:1048900099FE039B0193002B03D1042801D1064804
:1048A000F3E702A90548FDF74BFB07B000BDC04682
:1048B0001181030080AA0200DCA8020028990200EE
:1048C000F0B589B0019202900D0000222F490198A5
:1048D0000393FDF7C7F80090002801D043680093C8
:1048E000029B012B15D000273C000197029B9F42A1
:1048F00025D0009B2E68002B04D0310018001DF03D
:1049000045FD0600002C38D12C680196013704358E
:10491000ECE70024286804A902F030FA270002908E
:10492000029802F08DFA051E0CD1002C07D122004E
:1049300017490198FDF796F800281BD0446820001D
:1049400009B0F0BD009B2E00002B04D029001800F8
:104950001DF01CFD0600002C09D03A003100039820
:1049600002F038FE0B4B834201D025003E002C00A4
:104970003700D5E7084802F025FE3100019A039878
:1049800002F028FE034B8342C0D1BDE7861300002E
:104990004E110000E4D00200072D030037B501A935
:1049A0000500FDF759FF1E4B04002B40062B05D0D8
:1049B000AB072BD11B4B2A689A4227D120000199C3
:1049C0001CF0A8FF0190012823D10023E356207892
:1049D000002B04DB012023785B0018433EBD7F23BE
:1049E000013418403F3B034208D13F22237819008D
:1049F0009143802905D020F054FBEFE798435B10EA
:104A0000F1E78001134001341843EFE7019B012BCC
:104A1000E0D0019A0449054803F0FCFB0BF0D2FDFD
:104A2000070080FF28990200202D030014AD02002A
:104A3000F0B5150087B000220290039128002349A9
:104A4000FDF710F80022040021492800FDF70AF8BC
:104A5000012305001F4E04930593002C07D06068C6
:104A60001D4B984203D004A9FDF7F6FE06001B4C2F
:104A7000002D07D06868184B984203D005A9FDF7B0
:104A8000EBFE04000025029B154F9D420AD1002336
:104A900021003800059A019300930FF011FE0E4893
:104AA00007B0F0BD002D07D0002331003800049A74
:104AB000019300930FF004FE0399AB00002238002D
:104AC000C958FEF769FE0135DDE7C046061600004D
:104AD000B6110000E42E030054E202005B4503001F
:104AE0007CE4020010B5040086B06A4602A81021DA
:104AF00009F080FF012221006846FEF74DFE02A961
:104B00000248FDF71DFA06B010BDC0462899020004
:104B100070B50C68E30726D4A30703D1174B2268AE
:104B20009A4220D0012820D94868FEF701FF0600EC
:104B30002000FEF763FF051C300016F0B5F9011CDC
:104B40000F4818F05DFD011C041C281C15F0A2FE86
:104B500018F048FB211C15F0D5FC032302249843D0
:104B6000084B0443E418200070BD2000FEF746FF08
:104B700018F038FB06F0DCFA0400F4E7F8CA02008B
:104B8000000020410000808030B50B00140085B08B
:104B9000012802D9094802F0DBFE09480121C26858
:104BA0000192019D0022A8472200039003A9012041
:104BB00007F0FAFA039805B030BDC0465A2D03003D
:104BC000A0D0020013B504000800FDF711FA6A46F0
:104BD0000100200002F054F8009B0248002B00D195
:104BE000014816BDE4D00200DCD0020037B5002435
:104BF000022800D98C6848680D68FDF7F9F90A4B5E
:104C00000100002C00D0094B6A4628009847009B01
:104C1000002B07D001991C00002903D0180000F0D8
:104C2000E3F8040020003EBDE56C0000816C00004C
:104C300070B5040008001500FDF7DAF92A0001003C
:104C4000200002F077F8014870BDC04654E202002F
:104C5000F8B50327060004003E40022E16D10E4B85
:104C60000340062B12D0FF23DB05C518BD430021EE
:104C7000281C15F07DF9002806D080231B06ED18AE
:104C8000BD43064B3543EC182000F8BD20000AF068
:104C900049FE0400F8E7C046070080FF000080805E
:104CA00010B502F0A5F8002804D103481EF046FA1A
:104CB0000BF088FC10BDC04660AC020010B50228A5
:104CC00003D0044904481DF0A6FB0B2006C902F0DE
:104CD00081FC10BD852D030070AB02007FB50D4D2A
:104CE0000400A84213D00C4E012201003000FEF750
:104CF00053FD0A49300021F040FE04230293084B83
:104D00000321DB690748039402AA0193984728000E
:104D100004B070BD54E202007CE402005B45030075
:104D20002CDE0200509B0200F8B504000E000028A3
:104D30000ED1284B1D68002108001FF070FB0027D2
:104D40000600BD4232D10025AC423ED13000F8BD54
:104D50000868830714D103681F4A93420DD120F0DD
:104D6000FCFB05003068FEF7FFFC1C4BC26800240A
:104D70009A42E0D134680434DDE7194A934201D005
:104D8000FEF7F2FC856B002DECD0164B2A689A4298
:104D9000E8D00025E6E7EA68FB009958002904D02E
:104DA000042902D0300007F0A1F90137AB68BB42FB
:104DB000F1D8C8E7A268EB009958002904D004296B
:104DC00002D0300007F092F901356368AB42F1D8A8
:104DD000BCE7C046582B00202CDE020085E2000014
:104DE00070D602007C94020070B505000C200C0007
:104DF0001CF03DFF024B45600360846070BDC046FF
:104E0000389E0200F0B5036899B001909868079148
:104E100021F094FE431E019A0493031D9B00D318B6
:104E200002931300800014331B180F210393D368DF
:104E3000012206A81A4009180A70032293430A9314
:104E40000CA80BF099FB031E01D000F04BFD019A5A
:104E500055689468079A002A00D197E22A785E2A5A
:104E600000D193E20798079302F0C6FA04000AE023
:104E7000D64B63600434D64B9A6C002A00D184E28E
:104E800000229C6C9A640BF095FB0D9400F02AFDB7
:104E9000D04BEEE7D04BECE77F216B785B06DB175E
:104EA0003A78DB01100052B2084003430137002A70
:104EB000F6DB01225B001343DBE700237F213A7816
:104EC000DB01100052B20840C3180137002AF6DB9C
:104ED0000622DB00EFE703220337974308CFC8E73A
:104EE0000023C6E700237F213A78DB01100052B28D
:104EF0000840C3180137002AF6DB9B005B42029A88
:104F00009858002800D006E3B449B5481EF023F9AC
:104F1000ACE700237F213A78DB01100052B2084051
:104F2000C3180137002AF6DB029A9B005B429858AF
:104F30001EF00CFAE5E700207F223B78C001190043
:104F40005BB2114008180137002BF6DB251D01F07C
:104F50004DFD60603EE000207F223B78C0011900DB
:104F60005BB2114008180137002BF6DB251D01F05C
:104F70000BFDEEE700217F223B78C90118005BB2F0
:104F8000104041180137002BF6DB20681DF016FA9F
:104F9000206070E700217F223B78C90118005BB2D6
:104FA000104041180137002BF6DB220001CC01F044
:104FB00099FE60E700207F223B78C00119005BB2B8
:104FC000114008180137002BF6DB21000839251F96
:104FD00009F080FC2C004EE7251D01F01FFDB8E70D
:104FE000251F042221682868FEF72AFE2860F1E7C1
:104FF00000237F213A78DB01100052B20840C31829
:105000000137002AF6DB9B005B42029A2168995027
:10501000F6E000237F213A78DB01100052B208400D
:10502000C3180137002AF6DB029A9B005B42216815
:105030009858251F1EF08CF9CCE700207F223B7882
:10504000C00119005BB2114008180137002BF6DBD4
:105050002168251F01F0F8FCBCE700207F223B7887
:10506000C00119005BB2114008180137002BF6DBB4
:105070002168251F01F000FDACE700217F223B786D
:10508000C90118005BB2104041180137002BF6DB54
:10509000231F1A68206801F04DFE083CEBE6220051
:1050A000231F083A216812681868FEF7C9FD0C3CF6
:1050B000E1E600237F213A78DB01100052B208407C
:1050C000C3180137002AF6DB029A9B00D31A1A682C
:1050D000002A00D118E700221A60CCE600257F22C2
:1050E0003B78ED0119005BB211404D190137002BDF
:1050F000F6DB029BAD005D1B28681EF027F9002837
:1051000000D101E7002128681EF022F9B3E6002053
:105110007F223B78C00119005BB2114008180137AB
:10512000002BF6DB01F09CFCA5E600207F223B78FB
:10513000C00119005BB2114008180137002BF6DBE3
:1051400001F0A6FC97E6230004CB62601C0092E607
:105150002368A360231F1B68636008348BE6231F4A
:10516000196822682160B7E7221F1368216823604D
:105170002300083B1868106019607CE67B783A7859
:105180001B021343ED18174BEF1874E67E783B783B
:10519000206836021E43FEF709FDEF1C251F2C0078
:1051A000002800D167E6104BF618BF1963E67E7839
:1051B0003B78206836021E43FEF7F8FCEF1C251FE3
:1051C0002C00002800D056E6EDE7C046DCD00200F7
:1051D000582B002054E20200E4D002009F2D03006F
:1051E00034AB02000380FFFF0080FFFF7E783B7836
:1051F000360220681E43EF1CFEF7D8FC0028D2D1EF
:10520000043C38E67E783B78360220681E43EF1C6B
:10521000FEF7CCFC0028C6D0F2E7E6212768220082
:1052200038002600FF3101F05DFDE421083638002A
:105230003200FF3101F056FD0021320008001DF060
:10524000ADF80A9AAB7869780C320A921B020A9A76
:105250000B43EF1CFB1813600F2206ABD218157816
:10526000231D1D4302230A992B434B6000230A99F7
:1052700013708B60A0603400FDE525002668B64BF6
:10528000083D9E4208D12A00002103206660A660E6
:105290001DF084F82E609DE6012333400593012321
:1052A0001E4228D0231F1A6876100592012E0ED1B7
:1052B000A94A0C3C1A600021E2602261032022000E
:1052C0001DF06CF8059B236003232B6082E626000B
:1052D0002A68103E0692A04A00212A6003201A6024
:1052E000226032001DF05AF8069B0C3C3360059B8F
:1052F00023600523E9E730006660FEF735FA964B38
:105300002A0005992060A36003201DF047F8FEF7EE
:105310004DFC00280DD001228F4B06A92B600A9B63
:105320005B6813400E32521813700A9B0C3B0A93B1
:1053300050E66368C9E77B7839781B02874A0B43DC
:10534000EB189B186360EB78083423600F267F21ED
:105350000220012506AA2368B6180B4206D1221F97
:105360001768002B00D198E6183C84E50A9A013BA7
:105370005268024270D0220008C205236360140004
:105380000A9B1F680A9B0C3B0A933D00019B6F1C04
:105390005D602B78180010385A2800D90BE314F000
:1053A00017FC67FD77FD79FD0A037BFD0A038CFD81
:1053B0009AFD9FFDA1FDB8FDCAFDDAFDE9FDF9FDED
:1053C00009FE1BFE1FFE27FE38FE4CFE5CFE6CFE37
:1053D0007EFE88FE9DFEB6FEC4FE0A030A030A0393
:1053E0000A03D2FED7FE2FFFDEFEE3FEEDFEF5FE42
:1053F00006FF25FF31FF0A030A030A033CFF6CFF87
:105400006300630080009400A500BC00BC00CAFFDC
:1054100099000A030A030A030A030A030A030A0398
:105420000A03C800DF000A03F20001010A030A01AF
:1054300038011D015A017001200251027C026902EB
:105440000A0385018F019901A701B301CF01E90189
:105450000702E102F30204030A9A52682A403270FA
:105460000A9A0C3A0A9278E70A9A7B7839780C32D1
:105470000A921B020A9A0B43EF1CFB1813602B784D
:1054800006A9403B5A4253410F22521810785B0044
:105490000A99034323434B6000230A9913708B60DE
:1054A000E9E423682C4A934200D1A9E6DA0707D53C
:1054B0005B10DBB2043C012B00D047E70222B6E1CF
:1054C0000BF078F823680D930CE20021206801F0BE
:1054D00055FC5DE52500210020680C3501F04EFCEF
:1054E000844200D176E50023236032E520007E78F7
:1054F0003B7836021E43019B0C389C600368EF1C0E
:10550000002B02D12300083B186801F071FC002831
:1055100001D1103C49E66060ACE401220A9B06A977
:105520005B6813400E32521813700A9B0C3B0A93AF
:10553000A1E400207F223B78C00119005BB211403A
:1055400008180137002BF6DB01231B1A9B00E41817
:1055500021000EF0A1FF1BE554E202000380FFFFD3
:1055600000207F223B78C00119005BB2114008186F
:105570000137002BF6DB01231B1A9B00E4182100E6
:105580001EF04DFF04E500207F223B78C00119008A
:105590005BB2114008180137002BF6DB251D1BF00C
:1055A00069FDD6E42500231F083D1A682168286894
:1055B0001BF089FD0EE500207F223B78C001190019
:1055C0005BB2114008180137002BF6DB01231B1AD0
:1055D0009B00E418210006F019FAD9E400237F218A
:1055E0003A78DB01100052B20840C3180137002A94
:1055F000F6DB251F28682168022B03D1D14AFBF76F
:105600000BFAF3E4083C0A0001002068FBF704FAF7
:10561000BEE400237F213A78DB01100052B208403B
:10562000C3180137002AF6DB9A08920052421E0086
:105630001059032221681640251F134202D106F09B
:1056400055FDC7E4012E03D12A681BF03CFD24E57B
:105650001EF09CFCBEE400257F213B78ED011A0082
:105660005BB20A4055190137002BF6DB22002900F6
:10567000206801F07BFDB44B5D19AD006419FFF7A4
:10568000FAFB00257F213B78ED011A005BB20A404E
:1056900055190137002BF6DB22002900206801F0A4
:1056A000B5FDFF222B0A13401540E5E7032203371F
:1056B0009743002201CF1100251D1CF088F948E412
:1056C000032203379743251F2268296801CF1CF066
:1056D0007EF98BE40322FB1C93431979023A521A98
:1056E00092005F1DA418220018681CF08CF94FE48A
:1056F0000322FB1C934318798021C2434900920086
:105700005F1DA4180143EEE700207F213B78C00114
:105710001A005BB20A4010180137002BF6DBFF229B
:10572000FF250100C3095200294013405B189B006C
:10573000E41A020A231D20682A4001F029FA27E40E
:1057400000217F223B78C90118005BB2104041184C
:105750000137002BF6DBFF207C4BCAB29A1A4000BF
:10576000CB090340D31A9B00E4182200002001F06B
:10577000A7FB0DE400237F203A78DB01110052B231
:105780000140CB180137002AF6DBFF211800FF2665
:105790006D4ADD09084076002E40121A921B9200D5
:1057A000A4181B0A220019401CF0F8FDFFF7F0FBBB
:1057B00000217F223B78C90118005BB210404118DC
:1057C0000137002BF6DBFF20614BCAB29A1A40006A
:1057D000CB090340D31A9B00E418FE382200FF389F
:1057E000C5E70F2206ABD2181378002B00D165E66F
:1057F00001210A9B5B680B4013700A9B0C3B0A93C8
:105800005CE60A9B5B6813420ED003220A9B216868
:105810005B6893431C0059609A600A9B08341F68B8
:105820000A9B0C3B0A93B0E50A9B0C3B0A930A9B2C
:1058300003998B42E5D20AF0BDFE0020019B9C60DB
:1058400019B0F0BD6B78022B03D1043C2068FFF740
:105850000BFB002BFAD10A9B039A934203D23D49DA
:105860003D48FFF753FB9868002801D0FFF7FCFA8A
:105870000C3BF1E7079E231F18680593002E1BD0F1
:10588000079E0021320007910BAB01F03DFD0300A4
:105890000B98012B14D12F0020600AF08BFE019B86
:1058A00006AA5F609C600F239B181A780A9B012050
:1058B0001343019AD360C3E7320021680BABE4E7DE
:1058C000002B2ED1002800D11E48043C2060002E61
:1058D00034D0300021491DF048FC00282ED00AF0B9
:1058E00069FE0D960D9B1E49186809F003F8002803
:1058F00000D1ACE0019B5A68002A00D1A7E01378E0
:10590000432B00D090E0937850781B02D11C0343C6
:10591000019ACB18536093680593103B9360FFF78F
:105920008FFA0F491DF021FC002803D00B9802F0DC
:105930003DFCCAE70AF03EFE0B9BC4E5059CFFF761
:105940009AFAC04654E20200FFFFFF3FFEFFFF3F0E
:10595000FDFFFF3FE52D030024AC020054A9020027
:1059600060AC020000207F223B78C00119005BB2CE
:10597000114008180137002BF6DB251F2A68216823
:1059800001F058FDFFF732FB00217F223B78C9016F
:1059900018005BB2104041180137002BF6DB2500E0
:1059A00001CD01F059FDFFF7D4FA2068251F1CF046
:1059B00011FDFFF70FFBAF2B05D80120803B5B00EB
:1059C0000343FFF756FABF2B04D8B022D31A9B002B
:1059D000FFF795FACF2B04D8C022D31A9B00FFF70C
:1059E00014FBD62B06D8D03B1800216801F05CF8D8
:1059F000FFF7CEFAFA2B08D8251FD73B18002268EC
:105A0000296801F0E7FDFFF7F1FA4C494C481DF019
:105A1000A2FB04000AF0CEFD0498019B0430800034
:105A20001818446002200BE75E2B10D1019B019AED
:105A30009C680D98231D936002F0B8FB019B606089
:105A40005B68019A059301335360FFF7F9F90D9BE9
:105A50003C4A93422ED03C4A93422BD0019B1F27B5
:105A60001B68986821F070F821F06EF8019B051D05
:105A70005B6828005E1B059321F060F80400280095
:105A800021F062F8050021F059F80590280021F076
:105A90005BF8341B060021F051F80500300021F0BE
:105AA00053F801220378002B09D12900059B0D989A
:105AB00002F01EFC0F2306AA01219B181CE059B21C
:105AC000002908DB1900013039405B098C42ECD316
:105AD000641AD218E6E70F21E0261940F6001B01F0
